{
  "_format": "hh-sol-artifact-1",
  "contractName": "ConfidentialVestingVault",
  "sourceName": "contracts/vesting/ConfidentialVestingVault.sol",
  "abi": [
    {
      "inputs": [
        {
          "internalType": "contract IERC7984",
          "name": "token",
          "type": "address"
        }
      ],
      "stateMutability": "nonpayable",
      "type": "constructor"
    },
    {
      "inputs": [],
      "name": "CliffNotReached",
      "type": "error"
    },
    {
      "inputs": [],
      "name": "ERC721EnumerableForbiddenBatchMint",
      "type": "error"
    },
    {
      "inputs": [
        {
          "internalType": "address",
          "name": "sender",
          "type": "address"
        },
        {
          "internalType": "uint256",
          "name": "tokenId",
          "type": "uint256"
        },
        {
          "internalType": "address",
          "name": "owner",
          "type": "address"
        }
      ],
      "name": "ERC721IncorrectOwner",
      "type": "error"
    },
    {
      "inputs": [
        {
          "internalType": "address",
          "name": "operator",
          "type": "address"
        },
        {
          "internalType": "uint256",
          "name": "tokenId",
          "type": "uint256"
        }
      ],
      "name": "ERC721InsufficientApproval",
      "type": "error"
    },
    {
      "inputs": [
        {
          "internalType": "address",
          "name": "approver",
          "type": "address"
        }
      ],
      "name": "ERC721InvalidApprover",
      "type": "error"
    },
    {
      "inputs": [
        {
          "internalType": "address",
          "name": "operator",
          "type": "address"
        }
      ],
      "name": "ERC721InvalidOperator",
      "type": "error"
    },
    {
      "inputs": [
        {
          "internalType": "address",
          "name": "owner",
          "type": "address"
        }
      ],
      "name": "ERC721InvalidOwner",
      "type": "error"
    },
    {
      "inputs": [
        {
          "internalType": "address",
          "name": "receiver",
          "type": "address"
        }
      ],
      "name": "ERC721InvalidReceiver",
      "type": "error"
    },
    {
      "inputs": [
        {
          "internalType": "address",
          "name": "sender",
          "type": "address"
        }
      ],
      "name": "ERC721InvalidSender",
      "type": "error"
    },
    {
      "inputs": [
        {
          "internalType": "uint256",
          "name": "tokenId",
          "type": "uint256"
        }
      ],
      "name": "ERC721NonexistentToken",
      "type": "error"
    },
    {
      "inputs": [
        {
          "internalType": "address",
          "name": "owner",
          "type": "address"
        },
        {
          "internalType": "uint256",
          "name": "index",
          "type": "uint256"
        }
      ],
      "name": "ERC721OutOfBoundsIndex",
      "type": "error"
    },
    {
      "inputs": [],
      "name": "FeatureUnavailable",
      "type": "error"
    },
    {
      "inputs": [],
      "name": "InvalidBeneficiary",
      "type": "error"
    },
    {
      "inputs": [],
      "name": "InvalidParameters",
      "type": "error"
    },
    {
      "inputs": [],
      "name": "InvalidSchedule",
      "type": "error"
    },
    {
      "inputs": [],
      "name": "NotAuthorized",
      "type": "error"
    },
    {
      "inputs": [],
      "name": "NotCancelable",
      "type": "error"
    },
    {
      "inputs": [],
      "name": "TokenNotTransferable",
      "type": "error"
    },
    {
      "inputs": [],
      "name": "VestingRevokedAlready",
      "type": "error"
    },
    {
      "anonymous": false,
      "inputs": [
        {
          "indexed": true,
          "internalType": "address",
          "name": "previousAdmin",
          "type": "address"
        },
        {
          "indexed": true,
          "internalType": "address",
          "name": "newAdmin",
          "type": "address"
        }
      ],
      "name": "AdminTransferred",
      "type": "event"
    },
    {
      "anonymous": false,
      "inputs": [
        {
          "indexed": true,
          "internalType": "address",
          "name": "owner",
          "type": "address"
        },
        {
          "indexed": true,
          "internalType": "address",
          "name": "approved",
          "type": "address"
        },
        {
          "indexed": true,
          "internalType": "uint256",
          "name": "tokenId",
          "type": "uint256"
        }
      ],
      "name": "Approval",
      "type": "event"
    },
    {
      "anonymous": false,
      "inputs": [
        {
          "indexed": true,
          "internalType": "address",
          "name": "owner",
          "type": "address"
        },
        {
          "indexed": true,
          "internalType": "address",
          "name": "operator",
          "type": "address"
        },
        {
          "indexed": false,
          "internalType": "bool",
          "name": "approved",
          "type": "bool"
        }
      ],
      "name": "ApprovalForAll",
      "type": "event"
    },
    {
      "anonymous": false,
      "inputs": [
        {
          "indexed": true,
          "internalType": "address",
          "name": "account",
          "type": "address"
        },
        {
          "indexed": false,
          "internalType": "bool",
          "name": "allowed",
          "type": "bool"
        }
      ],
      "name": "EmployerAllowed",
      "type": "event"
    },
    {
      "anonymous": false,
      "inputs": [
        {
          "indexed": true,
          "internalType": "address",
          "name": "from",
          "type": "address"
        },
        {
          "indexed": true,
          "internalType": "address",
          "name": "to",
          "type": "address"
        },
        {
          "indexed": true,
          "internalType": "uint256",
          "name": "tokenId",
          "type": "uint256"
        }
      ],
      "name": "Transfer",
      "type": "event"
    },
    {
      "anonymous": false,
      "inputs": [
        {
          "indexed": true,
          "internalType": "uint256",
          "name": "vestingId",
          "type": "uint256"
        },
        {
          "indexed": true,
          "internalType": "address",
          "name": "sponsor",
          "type": "address"
        },
        {
          "indexed": false,
          "internalType": "bytes32",
          "name": "refundedAmountHandle",
          "type": "bytes32"
        }
      ],
      "name": "VestingCancelled",
      "type": "event"
    },
    {
      "anonymous": false,
      "inputs": [
        {
          "indexed": true,
          "internalType": "uint256",
          "name": "vestingId",
          "type": "uint256"
        },
        {
          "indexed": true,
          "internalType": "address",
          "name": "sponsor",
          "type": "address"
        },
        {
          "indexed": true,
          "internalType": "address",
          "name": "beneficiary",
          "type": "address"
        },
        {
          "indexed": false,
          "internalType": "uint64",
          "name": "start",
          "type": "uint64"
        },
        {
          "indexed": false,
          "internalType": "uint64",
          "name": "cliff",
          "type": "uint64"
        },
        {
          "indexed": false,
          "internalType": "uint64",
          "name": "duration",
          "type": "uint64"
        },
        {
          "indexed": false,
          "internalType": "uint16",
          "name": "initialUnlockBps",
          "type": "uint16"
        },
        {
          "indexed": false,
          "internalType": "bool",
          "name": "cancelable",
          "type": "bool"
        },
        {
          "indexed": false,
          "internalType": "bytes32",
          "name": "totalAmountHandle",
          "type": "bytes32"
        }
      ],
      "name": "VestingCreated",
      "type": "event"
    },
    {
      "anonymous": false,
      "inputs": [
        {
          "indexed": true,
          "internalType": "uint256",
          "name": "vestingId",
          "type": "uint256"
        },
        {
          "indexed": true,
          "internalType": "address",
          "name": "adminCaller",
          "type": "address"
        }
      ],
      "name": "VestingRevoked",
      "type": "event"
    },
    {
      "anonymous": false,
      "inputs": [
        {
          "indexed": true,
          "internalType": "uint256",
          "name": "vestingId",
          "type": "uint256"
        },
        {
          "indexed": true,
          "internalType": "address",
          "name": "beneficiary",
          "type": "address"
        },
        {
          "indexed": false,
          "internalType": "bytes32",
          "name": "amountHandle",
          "type": "bytes32"
        }
      ],
      "name": "VestingWithdrawn",
      "type": "event"
    },
    {
      "inputs": [],
      "name": "admin",
      "outputs": [
        {
          "internalType": "address",
          "name": "",
          "type": "address"
        }
      ],
      "stateMutability": "view",
      "type": "function"
    },
    {
      "inputs": [
        {
          "internalType": "address",
          "name": "employer",
          "type": "address"
        },
        {
          "internalType": "bool",
          "name": "allowed",
          "type": "bool"
        }
      ],
      "name": "allowEmployer",
      "outputs": [],
      "stateMutability": "nonpayable",
      "type": "function"
    },
    {
      "inputs": [
        {
          "internalType": "address",
          "name": "to",
          "type": "address"
        },
        {
          "internalType": "uint256",
          "name": "tokenId",
          "type": "uint256"
        }
      ],
      "name": "approve",
      "outputs": [],
      "stateMutability": "nonpayable",
      "type": "function"
    },
    {
      "inputs": [
        {
          "internalType": "address",
          "name": "owner",
          "type": "address"
        }
      ],
      "name": "balanceOf",
      "outputs": [
        {
          "internalType": "uint256",
          "name": "",
          "type": "uint256"
        }
      ],
      "stateMutability": "view",
      "type": "function"
    },
    {
      "inputs": [
        {
          "internalType": "uint256",
          "name": "vestingId",
          "type": "uint256"
        }
      ],
      "name": "cancel",
      "outputs": [],
      "stateMutability": "nonpayable",
      "type": "function"
    },
    {
      "inputs": [],
      "name": "confidentialToken",
      "outputs": [
        {
          "internalType": "contract IERC7984",
          "name": "",
          "type": "address"
        }
      ],
      "stateMutability": "view",
      "type": "function"
    },
    {
      "inputs": [
        {
          "internalType": "address",
          "name": "beneficiary",
          "type": "address"
        },
        {
          "internalType": "uint64",
          "name": "start",
          "type": "uint64"
        },
        {
          "internalType": "uint64",
          "name": "cliff",
          "type": "uint64"
        },
        {
          "internalType": "uint64",
          "name": "duration",
          "type": "uint64"
        },
        {
          "internalType": "uint16",
          "name": "initialUnlockBps",
          "type": "uint16"
        },
        {
          "internalType": "bool",
          "name": "cancelable",
          "type": "bool"
        },
        {
          "internalType": "externalEuint64",
          "name": "totalAmount",
          "type": "bytes32"
        },
        {
          "internalType": "bytes",
          "name": "amountProof",
          "type": "bytes"
        }
      ],
      "name": "createVesting",
      "outputs": [
        {
          "internalType": "uint256",
          "name": "vestingId",
          "type": "uint256"
        }
      ],
      "stateMutability": "nonpayable",
      "type": "function"
    },
    {
      "inputs": [
        {
          "internalType": "address",
          "name": "",
          "type": "address"
        }
      ],
      "name": "employerAllowlist",
      "outputs": [
        {
          "internalType": "bool",
          "name": "",
          "type": "bool"
        }
      ],
      "stateMutability": "view",
      "type": "function"
    },
    {
      "inputs": [
        {
          "internalType": "uint256",
          "name": "vestingId",
          "type": "uint256"
        }
      ],
      "name": "encryptedAmounts",
      "outputs": [
        {
          "internalType": "bytes32",
          "name": "totalHandle",
          "type": "bytes32"
        },
        {
          "internalType": "bytes32",
          "name": "releasedHandle",
          "type": "bytes32"
        }
      ],
      "stateMutability": "nonpayable",
      "type": "function"
    },
    {
      "inputs": [
        {
          "internalType": "uint256",
          "name": "tokenId",
          "type": "uint256"
        }
      ],
      "name": "getApproved",
      "outputs": [
        {
          "internalType": "address",
          "name": "",
          "type": "address"
        }
      ],
      "stateMutability": "view",
      "type": "function"
    },
    {
      "inputs": [
        {
          "internalType": "uint256",
          "name": "vestingId",
          "type": "uint256"
        }
      ],
      "name": "getSchedule",
      "outputs": [
        {
          "components": [
            {
              "internalType": "uint256",
              "name": "vestingId",
              "type": "uint256"
            },
            {
              "internalType": "address",
              "name": "sponsor",
              "type": "address"
            },
            {
              "internalType": "address",
              "name": "beneficiary",
              "type": "address"
            },
            {
              "internalType": "uint64",
              "name": "start",
              "type": "uint64"
            },
            {
              "internalType": "uint64",
              "name": "cliff",
              "type": "uint64"
            },
            {
              "internalType": "uint64",
              "name": "duration",
              "type": "uint64"
            },
            {
              "internalType": "uint16",
              "name": "initialUnlockBps",
              "type": "uint16"
            },
            {
              "internalType": "bool",
              "name": "cancelable",
              "type": "bool"
            },
            {
              "internalType": "bool",
              "name": "revoked",
              "type": "bool"
            },
            {
              "internalType": "uint64",
              "name": "revokedAt",
              "type": "uint64"
            },
            {
              "internalType": "bytes32",
              "name": "totalAmount",
              "type": "bytes32"
            },
            {
              "internalType": "bytes32",
              "name": "released",
              "type": "bytes32"
            }
          ],
          "internalType": "struct ConfidentialVestingVault.VestingScheduleView",
          "name": "",
          "type": "tuple"
        }
      ],
      "stateMutability": "view",
      "type": "function"
    },
    {
      "inputs": [
        {
          "internalType": "address",
          "name": "owner",
          "type": "address"
        },
        {
          "internalType": "address",
          "name": "operator",
          "type": "address"
        }
      ],
      "name": "isApprovedForAll",
      "outputs": [
        {
          "internalType": "bool",
          "name": "",
          "type": "bool"
        }
      ],
      "stateMutability": "view",
      "type": "function"
    },
    {
      "inputs": [],
      "name": "name",
      "outputs": [
        {
          "internalType": "string",
          "name": "",
          "type": "string"
        }
      ],
      "stateMutability": "view",
      "type": "function"
    },
    {
      "inputs": [
        {
          "internalType": "uint256",
          "name": "tokenId",
          "type": "uint256"
        }
      ],
      "name": "ownerOf",
      "outputs": [
        {
          "internalType": "address",
          "name": "",
          "type": "address"
        }
      ],
      "stateMutability": "view",
      "type": "function"
    },
    {
      "inputs": [],
      "name": "protocolId",
      "outputs": [
        {
          "internalType": "uint256",
          "name": "",
          "type": "uint256"
        }
      ],
      "stateMutability": "pure",
      "type": "function"
    },
    {
      "inputs": [
        {
          "internalType": "address",
          "name": "from",
          "type": "address"
        },
        {
          "internalType": "address",
          "name": "to",
          "type": "address"
        },
        {
          "internalType": "uint256",
          "name": "tokenId",
          "type": "uint256"
        }
      ],
      "name": "safeTransferFrom",
      "outputs": [],
      "stateMutability": "nonpayable",
      "type": "function"
    },
    {
      "inputs": [
        {
          "internalType": "address",
          "name": "from",
          "type": "address"
        },
        {
          "internalType": "address",
          "name": "to",
          "type": "address"
        },
        {
          "internalType": "uint256",
          "name": "tokenId",
          "type": "uint256"
        },
        {
          "internalType": "bytes",
          "name": "data",
          "type": "bytes"
        }
      ],
      "name": "safeTransferFrom",
      "outputs": [],
      "stateMutability": "nonpayable",
      "type": "function"
    },
    {
      "inputs": [
        {
          "internalType": "address",
          "name": "operator",
          "type": "address"
        },
        {
          "internalType": "bool",
          "name": "approved",
          "type": "bool"
        }
      ],
      "name": "setApprovalForAll",
      "outputs": [],
      "stateMutability": "nonpayable",
      "type": "function"
    },
    {
      "inputs": [
        {
          "internalType": "uint256",
          "name": "vestingId",
          "type": "uint256"
        },
        {
          "internalType": "string",
          "name": "uri",
          "type": "string"
        }
      ],
      "name": "setCustomTokenURI",
      "outputs": [],
      "stateMutability": "nonpayable",
      "type": "function"
    },
    {
      "inputs": [
        {
          "internalType": "bytes4",
          "name": "interfaceId",
          "type": "bytes4"
        }
      ],
      "name": "supportsInterface",
      "outputs": [
        {
          "internalType": "bool",
          "name": "",
          "type": "bool"
        }
      ],
      "stateMutability": "view",
      "type": "function"
    },
    {
      "inputs": [],
      "name": "symbol",
      "outputs": [
        {
          "internalType": "string",
          "name": "",
          "type": "string"
        }
      ],
      "stateMutability": "view",
      "type": "function"
    },
    {
      "inputs": [
        {
          "internalType": "uint256",
          "name": "index",
          "type": "uint256"
        }
      ],
      "name": "tokenByIndex",
      "outputs": [
        {
          "internalType": "uint256",
          "name": "",
          "type": "uint256"
        }
      ],
      "stateMutability": "view",
      "type": "function"
    },
    {
      "inputs": [
        {
          "internalType": "address",
          "name": "owner",
          "type": "address"
        },
        {
          "internalType": "uint256",
          "name": "index",
          "type": "uint256"
        }
      ],
      "name": "tokenOfOwnerByIndex",
      "outputs": [
        {
          "internalType": "uint256",
          "name": "",
          "type": "uint256"
        }
      ],
      "stateMutability": "view",
      "type": "function"
    },
    {
      "inputs": [
        {
          "internalType": "uint256",
          "name": "tokenId",
          "type": "uint256"
        }
      ],
      "name": "tokenURI",
      "outputs": [
        {
          "internalType": "string",
          "name": "",
          "type": "string"
        }
      ],
      "stateMutability": "view",
      "type": "function"
    },
    {
      "inputs": [],
      "name": "totalSchedules",
      "outputs": [
        {
          "internalType": "uint256",
          "name": "",
          "type": "uint256"
        }
      ],
      "stateMutability": "view",
      "type": "function"
    },
    {
      "inputs": [],
      "name": "totalSupply",
      "outputs": [
        {
          "internalType": "uint256",
          "name": "",
          "type": "uint256"
        }
      ],
      "stateMutability": "view",
      "type": "function"
    },
    {
      "inputs": [
        {
          "internalType": "address",
          "name": "newAdmin",
          "type": "address"
        }
      ],
      "name": "transferAdmin",
      "outputs": [],
      "stateMutability": "nonpayable",
      "type": "function"
    },
    {
      "inputs": [
        {
          "internalType": "address",
          "name": "from",
          "type": "address"
        },
        {
          "internalType": "address",
          "name": "to",
          "type": "address"
        },
        {
          "internalType": "uint256",
          "name": "tokenId",
          "type": "uint256"
        }
      ],
      "name": "transferFrom",
      "outputs": [],
      "stateMutability": "nonpayable",
      "type": "function"
    },
    {
      "inputs": [
        {
          "internalType": "uint256",
          "name": "vestingId",
          "type": "uint256"
        },
        {
          "internalType": "address",
          "name": "to",
          "type": "address"
        }
      ],
      "name": "withdraw",
      "outputs": [],
      "stateMutability": "nonpayable",
      "type": "function"
    }
  ],
  "bytecode": "0x60a06040526001600b5534801561001557600080fd5b506040516135b63803806135b683398101604081905261003491610284565b6040518060400160405280601081526020016f50617950726f6f662056657374696e6760801b815250604051806040016040528060068152602001651414159154d560d21b81525061016961008d6101eb60201b60201c565b80517f9e7b61f58c47dc699ac88507c4f5bb9f121c03808c5676a8078fe583e464970080546001600160a01b03199081166001600160a01b039384161790915560208301517f9e7b61f58c47dc699ac88507c4f5bb9f121c03808c5676a8078fe583e46497018054831691841691909117905560408301517f9e7b61f58c47dc699ac88507c4f5bb9f121c03808c5676a8078fe583e46497028054831691841691909117905560608301517f9e7b61f58c47dc699ac88507c4f5bb9f121c03808c5676a8078fe583e46497038054909216921691909117905550565b60006101758382610353565b5060016101828282610353565b5050506001600160a01b0381166101ac57604051630e52390960e41b815260040160405180910390fd5b6001600160a01b0316608052600a80546001600160a01b031916339081179091556000908152600e60205260409020805460ff19166001179055610411565b60408051608081018252600080825260208201819052918101829052606081019190915250604080516080810182527350157cffd6bbfa2dece204a89ec419c23ef5755d815273cd3ab3bd6bcc0c0bf3e27912a92043e817b1cf69602082015273a02cda4ca3a71d7c46997716f4283aa851c2881291810191909152731364cbbf2cdf5032c47d8226a6f6fbd2afcdacac606082015290565b60006020828403121561029657600080fd5b81516001600160a01b03811681146102ad57600080fd5b9392505050565b634e487b7160e01b600052604160045260246000fd5b600181811c908216806102de57607f821691505b6020821081036102fe57634e487b7160e01b600052602260045260246000fd5b50919050565b601f82111561034e57806000526020600020601f840160051c8101602085101561032b5750805b601f840160051c820191505b8181101561034b5760008155600101610337565b50505b505050565b81516001600160401b0381111561036c5761036c6102b4565b6103808161037a84546102ca565b84610304565b6020601f8211600181146103b4576000831561039c5750848201515b600019600385901b1c1916600184901b17845561034b565b600084815260208120601f198516915b828110156103e457878501518255602094850194600190920191016103c4565b50848210156104025786840151600019600387901b60f8161c191681555b50505050600190811b01905550565b6080516131526104646000396000818161031401528181610564015281816105b201528181610a7e01528181610ad101528181610b7701528181610bc70152818161188701526118d101526131526000f3fe608060405234801561001057600080fd5b50600436106101ce5760003560e01c806370a0823111610104578063a22cb465116100a2578063c87b56dd11610071578063c87b56dd1461040e578063da1f12ab14610421578063e985e9c514610429578063f851a4401461043c57600080fd5b8063a22cb465146103a5578063b88d4fde146103b8578063bd8ab8ca146103cb578063c5ca93a7146103ee57600080fd5b806395d89b41116100de57806395d89b411461036f578063965720af14610377578063968aa18b1461037f5780639ae6e9431461039257600080fd5b806370a082311461033657806375829def14610349578063851fc4b61461035c57600080fd5b806323b872dd1161017157806342842e0e1161014b57806342842e0e146102d65780634f6ccce7146102e95780636352211e146102fc5780636a7543cf1461030f57600080fd5b806323b872dd1461029d5780632f745c59146102b057806340e58ee5146102c357600080fd5b8063081812fc116101ad578063081812fc14610225578063095ea7b31461025057806316093af81461026357806318160ddd1461028b57600080fd5b8062f714ce146101d357806301ffc9a7146101e857806306fdde0314610210575b600080fd5b6101e66101e13660046128db565b61044f565b005b6101fb6101f6366004612920565b6106a6565b60405190151581526020015b60405180910390f35b6102186106b7565b6040516102079190612983565b610238610233366004612996565b610749565b6040516001600160a01b039091168152602001610207565b6101e661025e3660046129af565b610772565b610276610271366004612996565b610781565b60408051928352602083019190915201610207565b6008545b604051908152602001610207565b6101e66102ab3660046129d9565b61081a565b61028f6102be3660046129af565b6108aa565b6101e66102d1366004612996565b61090f565b6101e66102e43660046129d9565b610c99565b61028f6102f7366004612996565b610cb9565b61023861030a366004612996565b610d12565b6102387f000000000000000000000000000000000000000000000000000000000000000081565b61028f610344366004612a16565b610d1d565b6101e6610357366004612a16565b610d65565b6101e661036a366004612a79565b610e09565b610218610eb6565b61028f610ec5565b6101e661038d366004612ad4565b610edb565b61028f6103a0366004612b15565b610f65565b6101e66103b3366004612ad4565b61100b565b6101e66103c6366004612be7565b611016565b6101fb6103d9366004612a16565b600e6020526000908152604090205460ff1681565b6104016103fc366004612996565b61102e565b6040516102079190612cc8565b61021861041c366004612996565b61119c565b61271161028f565b6101fb610437366004612dd4565b611292565b600a54610238906001600160a01b031681565b6000828152600c602052604090206002015482906001600160a01b031661048957604051631b742d9d60e31b815260040160405180910390fd5b6001600160a01b0382166104b057604051631559b7d760e21b815260040160405180910390fd5b6000838152600c6020526040902060028101546001600160a01b031633146104eb5760405163ea8e4eb560e01b815260040160405180910390fd5b6006810154610100900460ff1615610516576040516301404c2b60e01b815260040160405180910390fd5b60038101546001600160401b03164210156105445760405163392a328760e01b815260040160405180910390fd5b600061054f826112c0565b9050600061055c82611317565b9050610588817f0000000000000000000000000000000000000000000000000000000000000000611324565b50604051632df5f6bf60e11b81526001600160a01b038681166004830152602482018390526000917f000000000000000000000000000000000000000000000000000000000000000090911690635bebed7e906044016020604051808303816000875af11580156105fd573d6000803e3d6000fd5b505050506040513d601f19601f820116820180604052508101906106219190612dfe565b9050600061062e82611337565b905061063e856005015482611344565b600586015561064c8561137d565b61065581611448565b5060028501546040518281526001600160a01b039091169089907ffc97c56a8f093cda0c3e42d0a94ee5b8f54994c112cc904d37424ba61b6775e59060200160405180910390a35050505050505050565b60006106b182611458565b92915050565b6060600080546106c690612e17565b80601f01602080910402602001604051908101604052809291908181526020018280546106f290612e17565b801561073f5780601f106107145761010080835404028352916020019161073f565b820191906000526020600020905b81548152906001019060200180831161072257829003601f168201915b5050505050905090565b60006107548261147d565b506000828152600460205260409020546001600160a01b03166106b1565b61077d8282336114b6565b5050565b6000818152600c6020526040812060020154819083906001600160a01b03166107bd57604051631b742d9d60e31b815260040160405180910390fd5b6000848152600c6020526040902060048101546107da9033611324565b506107e9816005015433611324565b5060006107fa8260040154336114c3565b9050600061080c8360050154336114c3565b919550909350505050915091565b6001600160a01b03821661084957604051633250574960e11b8152600060048201526024015b60405180910390fd5b60006108568383336114cf565b9050836001600160a01b0316816001600160a01b0316146108a4576040516364283d7b60e01b81526001600160a01b0380861660048301526024820184905282166044820152606401610840565b50505050565b60006108b583610d1d565b82106108e65760405163295f44f760e21b81526001600160a01b038416600482015260248101839052604401610840565b506001600160a01b03919091166000908152600660209081526040808320938352929052205490565b6000818152600c602052604090206002015481906001600160a01b031661094957604051631b742d9d60e31b815260040160405180910390fd5b6000828152600c60205260409020600681015460ff1661097c5760405163ca48dc8360e01b815260040160405180910390fd5b6006810154610100900460ff16156109a7576040516301404c2b60e01b815260040160405180910390fd5b60018101546001600160a01b031633148015906109cf5750600a546001600160a01b03163314155b156109ed5760405163ea8e4eb560e01b815260040160405180910390fd5b6006810180546001600160401b034281166201000090810269ffffffffffffffffff0019909316929092176101001792839055600092610a31928592910416611582565b90506000610a43828460050154611722565b90506000610a55846004015484611722565b60028501549091506001600160a01b031615610b64576000610a7683611317565b9050610aa2817f0000000000000000000000000000000000000000000000000000000000000000611324565b506002850154604051632df5f6bf60e11b81526001600160a01b039182166004820152602481018390526000917f00000000000000000000000000000000000000000000000000000000000000001690635bebed7e906044016020604051808303816000875af1158015610b1a573d6000803e3d6000fd5b505050506040513d601f19601f82011682018060405250810190610b3e9190612dfe565b90506000610b4b82611337565b9050610b5b876005015482611344565b60058801555050505b6000610b6f82611317565b9050610b9b817f0000000000000000000000000000000000000000000000000000000000000000611324565b506001850154604051632df5f6bf60e11b81526001600160a01b039182166004820152602481018390527f000000000000000000000000000000000000000000000000000000000000000090911690635bebed7e906044016020604051808303816000875af1158015610c12573d6000803e3d6000fd5b505050506040513d601f19601f82011682018060405250810190610c369190612dfe565b50610c408561137d565b610c4982611448565b5060018501546040518381526001600160a01b039091169088907f3d2f9b90db5d6ef13234cb321251e976d66aa1b676471b3095833e8afa2866959060200160405180910390a350505050505050565b610cb483838360405180602001604052806000815250611016565b505050565b6000610cc460085490565b8210610ced5760405163295f44f760e21b81526000600482015260248101839052604401610840565b60088281548110610d0057610d00612e4b565b90600052602060002001549050919050565b60006106b18261147d565b60006001600160a01b038216610d49576040516322718ad960e21b815260006004820152602401610840565b506001600160a01b031660009081526003602052604090205490565b600a546001600160a01b03163314610d905760405163ea8e4eb560e01b815260040160405180910390fd5b6001600160a01b038116610db757604051630e52390960e41b815260040160405180910390fd5b600a80546001600160a01b038381166001600160a01b0319831681179093556040519116919082907ff8ccb027dfcd135e000e9d45e6cc2d662578a8825d4c45b5e32e0adf67e79ec690600090a35050565b6000838152600c602052604090206002015483906001600160a01b0316610e4357604051631b742d9d60e31b815260040160405180910390fd5b600a546001600160a01b03163314801590610e7857506000848152600c60205260409020600101546001600160a01b03163314155b15610e965760405163ea8e4eb560e01b815260040160405180910390fd5b6000848152600d60205260409020610eaf838583612ea8565b5050505050565b6060600180546106c690612e17565b60006001600b54610ed69190612f7d565b905090565b600a546001600160a01b03163314610f065760405163ea8e4eb560e01b815260040160405180910390fd5b6001600160a01b0382166000818152600e6020908152604091829020805460ff191685151590811790915591519182527f309ce5b0a51f3ccd120639a75001e2d47b1b0654d54c6efb01b656d25fcd7f32910160405180910390a25050565b336000908152600e602052604081205460ff16610f955760405163ea8e4eb560e01b815260040160405180910390fd5b60006040518060c001604052808c6001600160a01b031681526020018b6001600160401b031681526020018a6001600160401b03168152602001896001600160401b031681526020018861ffff1681526020018715158152509050610ffc81868686611754565b9b9a5050505050505050505050565b61077d338383611b84565b61102184848461081a565b6108a43385858585611c23565b6040805161018081018252600080825260208201819052918101829052606081018290526080810182905260a0810182905260c0810182905260e081018290526101008101829052610120810182905261014081018290526101608101919091526000828152600c602052604090206002015482906001600160a01b03166110c957604051631b742d9d60e31b815260040160405180910390fd5b6000838152600c60209081526040918290208251610180810184528154815260018201546001600160a01b0390811693820193909352600282015492831693810193909352600160a01b9091046001600160401b03908116606084015260038201548082166080850152600160401b8104821660a0850152600160801b900461ffff1660c0840152600682015460ff808216151560e08601526101008083049091161515908501526201000090041661012083015260048101546101408301526005015461016082015291505b50919050565b6000818152600260205260409020546060906001600160a01b03166111d457604051631b742d9d60e31b815260040160405180910390fd5b6000828152600d6020526040812080546111ed90612e17565b80601f016020809104026020016040519081016040528092919081815260200182805461121990612e17565b80156112665780601f1061123b57610100808354040283529160200191611266565b820191906000526020600020905b81548152906001019060200180831161124957829003601f168201915b50505050509050805160001461127c5792915050565b5050604080516020810190915260008152919050565b6001600160a01b03918216600090815260056020908152604080832093909416825291909152205460ff1690565b60068101546000908190610100900460ff166112dc57426112f1565b60068301546201000090046001600160401b03165b905060006112ff8483611582565b905061130f818560050154611722565b949350505050565b60006106b1826005611d4d565b60006113308383611de2565b5090919050565b60006106b1826006611d4d565b600082611358576113556000611e5c565b92505b8161136a576113676000611e5c565b91505b61137683836000611e72565b9392505050565b61138a8160040154611448565b50600481015460018201546113a891906001600160a01b0316611324565b50600481015460028201546113c691906001600160a01b0316611324565b506004810154600a546113e291906001600160a01b0316611324565b506113f08160050154611448565b506005810154600182015461140e91906001600160a01b0316611324565b506005810154600282015461142c91906001600160a01b0316611324565b506005810154600a5461077d91906001600160a01b0316611324565b60006114548230611de2565b5090565b60006001600160e01b0319821663780e9d6360e01b14806106b157506106b182611f26565b6000818152600260205260408120546001600160a01b0316806106b157604051637e27328960e01b815260048101849052602401610840565b610cb48383836001611f76565b6000611330838361207c565b60006001600160a01b038416158015906114f157506001600160a01b03821615155b15611577576000838152600c602052604090206006810154610100900460ff166115755760038101546002820154600091611547916001600160401b03600160401b909204821691600160a01b90910416612f90565b9050806001600160401b03164210156115735760405163647d843160e11b815260040160405180910390fd5b505b505b61130f8484846120c3565b60028201546000906001600160401b03600160a01b90910481169083161115806115bc575060038301546001600160401b03908116908316105b156115d2576115cb6000611e5c565b90506106b1565b600383015460028401548391600091611605916001600160401b03600160401b909104811691600160a01b900416612f90565b9050806001600160401b0316826001600160401b03161115611625578091505b60028501546001600160401b03600160a01b9091048116908316116116575761164e6000611e5c565b925050506106b1565b806001600160401b0316826001600160401b03160361167d5750505060048201546106b1565b6004850154600386015460009161169e91600160801b900461ffff16612190565b905060006116b0876004015483611722565b60028801549091506000906116d590600160a01b90046001600160401b031686612faf565b905060006117096116ef84846001600160401b03166121c1565b60038b0154600160401b90046001600160401b03166121ea565b90506117158482611344565b9998505050505050505050565b600082611736576117336000611e5c565b92505b81611748576117456000611e5c565b91505b61137683836000612211565b83516000906001600160a01b031661177f57604051631559b7d760e21b815260040160405180910390fd5b60608501516001600160401b031615806117a25750612710856080015161ffff16115b156117c057604051630e52390960e41b815260040160405180910390fd5b600085602001516001600160401b03166000146117e15785602001516117e3565b425b9050600086604001516001600160401b0316600014611806578660400151611808565b815b9050816001600160401b0316816001600160401b0316101561183d57604051630e52390960e41b815260040160405180910390fd5b600061187f8787878080601f01602080910402602001604051908101604052809392919081815260200183838082843760009201919091525061227892505050565b90506118ab817f0000000000000000000000000000000000000000000000000000000000000000611324565b5060405163eb3155b560e01b8152336004820152306024820152604481018290526000907f00000000000000000000000000000000000000000000000000000000000000006001600160a01b03169063eb3155b5906064016020604051808303816000875af1158015611922573d6000803e3d6000fd5b505050506040513d601f19601f820116820180604052508101906119469190612dfe565b9050600061195382611337565b600b8054919250600061196583612fce565b9190505595506000600c60008881526020019081526020016000209050868160000181905550338160010160006101000a8154816001600160a01b0302191690836001600160a01b031602179055508a600001518160020160006101000a8154816001600160a01b0302191690836001600160a01b03160217905550858160020160146101000a8154816001600160401b0302191690836001600160401b03160217905550848160030160006101000a8154816001600160401b0302191690836001600160401b031602179055508a606001518160030160086101000a8154816001600160401b0302191690836001600160401b031602179055508a608001518160030160106101000a81548161ffff021916908361ffff160217905550818160040181905550611a966000611e5c565b600582015560a08b015160068201805460ff1916911515919091179055611abc8161137d565b8a51611ac89088612286565b611ad182611448565b50600281015460018201546003830154600684015460408051600160a01b86046001600160401b0390811682528085166020830152600160401b85041691810191909152600160801b90920461ffff16606083015260ff161515608082015260a081018590526001600160a01b03928316929091169089907f332e761f34456bac4b1354f52b453eb4d3cc36c88a48494f02bd6ad30e3173ca9060c00160405180910390a4505050505050949350505050565b6001600160a01b038216611bb657604051630b61174360e31b81526001600160a01b0383166004820152602401610840565b6001600160a01b03838116600081815260056020908152604080832094871680845294825291829020805460ff191686151590811790915591519182527f17307eab39ab6107e8899845ad3d59bd9653f200f220920489ca2b5937696c31910160405180910390a3505050565b6001600160a01b0383163b15610eaf57604051630a85bd0160e11b81526001600160a01b0384169063150b7a0290611c65908890889087908790600401612fe7565b6020604051808303816000875af1925050508015611ca0575060408051601f3d908101601f19168201909252611c9d9181019061301a565b60015b611d09573d808015611cce576040519150601f19603f3d011682016040523d82523d6000602084013e611cd3565b606091505b508051600003611d0157604051633250574960e11b81526001600160a01b0385166004820152602401610840565b805181602001fd5b6001600160e01b03198116630a85bd0160e11b14611d4557604051633250574960e11b81526001600160a01b0385166004820152602401610840565b505050505050565b6000805160206130dd833981519152546040516307227b9160e21b81526000916000805160206130fd833981519152916001600160a01b0390911690631c89ee4490611d9f9087908790600401613059565b6020604051808303816000875af1158015611dbe573d6000803e3d6000fd5b505050506040513d601f19601f8201168201806040525081019061130f9190612dfe565b6000805160206130fd8339815191528054604051635ca4b5b160e11b8152600481018590526001600160a01b0384811660248301529091169063b9496b62906044015b600060405180830381600087803b158015611e3f57600080fd5b505af1158015611e53573d6000803e3d6000fd5b50505050505050565b60006106b1826001600160801b031660066122a0565b6000808215611e865750600160f81b611e8a565b5060005b6000805160206130dd8339815191525460405163022f65e760e31b81526000805160206130fd833981519152916001600160a01b03169063117b2f3890611ed99089908990879060040161306d565b6020604051808303816000875af1158015611ef8573d6000803e3d6000fd5b505050506040513d601f19601f82011682018060405250810190611f1c9190612dfe565b9695505050505050565b60006001600160e01b031982166380ac58cd60e01b1480611f5757506001600160e01b03198216635b5e139f60e01b145b806106b157506301ffc9a760e01b6001600160e01b03198316146106b1565b8080611f8a57506001600160a01b03821615155b1561204c576000611f9a8461147d565b90506001600160a01b03831615801590611fc65750826001600160a01b0316816001600160a01b031614155b8015611fd95750611fd78184611292565b155b156120025760405163a9fbf51f60e01b81526001600160a01b0384166004820152602401610840565b811561204a5783856001600160a01b0316826001600160a01b03167f8c5be1e5ebec7d5bd14f71427d1e84f3dd0314c0f7b2291e5b200ac8c7c3b92560405160405180910390a45b505b5050600090815260046020526040902080546001600160a01b0319166001600160a01b0392909216919091179055565b6000805160206130fd8339815191528054604051630f8e573b60e21b8152600481018590526001600160a01b03848116602483015290911690633e395cec90604401611e25565b6000806120d18585856122f2565b90506001600160a01b03811661212e5761212984600880546000838152600960205260408120829055600182018355919091527ff3f7a9fe364faab93b216da50a3214154f22a0a2b415b23a84c8169e8b636ee30155565b612151565b846001600160a01b0316816001600160a01b0316146121515761215181856123eb565b6001600160a01b03851661216d576121688461246c565b61130f565b846001600160a01b0316816001600160a01b03161461130f5761130f858561251b565b60008161ffff166000036121a8576115cb6000611e5c565b6113766121b9848461ffff166121c1565b6127106121ea565b6000826121d5576121d26000611e5c565b92505b611376836001600160801b038416600161256b565b6000826121fe576121fb6000611e5c565b92505b611376836001600160801b0384166125d2565b60008082156122255750600160f81b612229565b5060005b6000805160206130dd833981519152546040516303056db360e31b81526000805160206130fd833981519152916001600160a01b03169063182b6d9890611ed99089908990879060040161306d565b600061137683836005612676565b61077d82826040518060200160405280600081525061277b565b6000805160206130dd83398151915254604051639cd07acb60e01b81526000916000805160206130fd833981519152916001600160a01b0390911690639cd07acb90611d9f9087908790600401613059565b6000828152600260205260408120546001600160a01b039081169083161561231f5761231f818486612793565b6001600160a01b0381161561235d5761233c600085600080611f76565b6001600160a01b038116600090815260036020526040902080546000190190555b6001600160a01b0385161561238c576001600160a01b0385166000908152600360205260409020805460010190555b60008481526002602052604080822080546001600160a01b0319166001600160a01b0389811691821790925591518793918516917fddf252ad1be2c89b69c2b068fc378daa952ba7f163c4a11628f55a4df523b3ef91a4949350505050565b60006123f683610d1d565b6000838152600760209081526040808320546001600160a01b038816845260069092529091209192509081831461244d57600083815260208281526040808320548584528184208190558352600790915290208290555b6000938452600760209081526040808620869055938552525081205550565b60085460009061247e90600190612f7d565b600083815260096020526040812054600880549394509092849081106124a6576124a6612e4b565b9060005260206000200154905080600883815481106124c7576124c7612e4b565b60009182526020808320909101929092558281526009909152604080822084905585825281205560088054806124ff576124ff61308d565b6001900381819060005260206000200160009055905550505050565b6000600161252884610d1d565b6125329190612f7d565b6001600160a01b039093166000908152600660209081526040808320868452825280832085905593825260079052919091209190915550565b600080821561257f5750600160f81b612583565b5060005b6000805160206130dd83398151915254604051630afe14ad60e31b81526000805160206130fd833981519152916001600160a01b0316906357f0a56890611ed99089908990879060040161306d565b6000805160206130dd83398151915254604051635a53accb60e01b8152600091600160f81b916000805160206130fd833981519152916001600160a01b031690635a53accb9061262a9088908890879060040161306d565b6020604051808303816000875af1158015612649573d6000803e3d6000fd5b505050506040513d601f19601f8201168201806040525081019061266d9190612dfe565b95945050505050565b6000805160206130dd8339815191525460405163196d0b9b60e01b81526000916000805160206130fd833981519152916001600160a01b039091169063196d0b9b906126cc9088903390899089906004016130a3565b6020604051808303816000875af11580156126eb573d6000803e3d6000fd5b505050506040513d601f19601f8201168201806040525081019061270f9190612dfe565b8154604051630f8e573b60e21b8152600481018390523360248201529193506001600160a01b031690633e395cec90604401600060405180830381600087803b15801561275b57600080fd5b505af115801561276f573d6000803e3d6000fd5b50505050509392505050565b61278583836127f7565b610cb4336000858585611c23565b61279e83838361285c565b610cb4576001600160a01b0383166127cc57604051637e27328960e01b815260048101829052602401610840565b60405163177e802f60e01b81526001600160a01b038316600482015260248101829052604401610840565b6001600160a01b03821661282157604051633250574960e11b815260006004820152602401610840565b600061282f838360006114cf565b90506001600160a01b03811615610cb4576040516339e3563760e11b815260006004820152602401610840565b60006001600160a01b0383161580159061130f5750826001600160a01b0316846001600160a01b0316148061289657506128968484611292565b8061130f5750506000908152600460205260409020546001600160a01b03908116911614919050565b80356001600160a01b03811681146128d657600080fd5b919050565b600080604083850312156128ee57600080fd5b823591506128fe602084016128bf565b90509250929050565b6001600160e01b03198116811461291d57600080fd5b50565b60006020828403121561293257600080fd5b813561137681612907565b6000815180845260005b8181101561296357602081850181015186830182015201612947565b506000602082860101526020601f19601f83011685010191505092915050565b602081526000611376602083018461293d565b6000602082840312156129a857600080fd5b5035919050565b600080604083850312156129c257600080fd5b6129cb836128bf565b946020939093013593505050565b6000806000606084860312156129ee57600080fd5b6129f7846128bf565b9250612a05602085016128bf565b929592945050506040919091013590565b600060208284031215612a2857600080fd5b611376826128bf565b60008083601f840112612a4357600080fd5b5081356001600160401b03811115612a5a57600080fd5b602083019150836020828501011115612a7257600080fd5b9250929050565b600080600060408486031215612a8e57600080fd5b8335925060208401356001600160401b03811115612aab57600080fd5b612ab786828701612a31565b9497909650939450505050565b803580151581146128d657600080fd5b60008060408385031215612ae757600080fd5b612af0836128bf565b91506128fe60208401612ac4565b80356001600160401b03811681146128d657600080fd5b60008060008060008060008060006101008a8c031215612b3457600080fd5b612b3d8a6128bf565b9850612b4b60208b01612afe565b9750612b5960408b01612afe565b9650612b6760608b01612afe565b955060808a013561ffff81168114612b7e57600080fd5b9450612b8c60a08b01612ac4565b935060c08a0135925060e08a01356001600160401b03811115612bae57600080fd5b612bba8c828d01612a31565b915080935050809150509295985092959850929598565b634e487b7160e01b600052604160045260246000fd5b60008060008060808587031215612bfd57600080fd5b612c06856128bf565b9350612c14602086016128bf565b92506040850135915060608501356001600160401b03811115612c3657600080fd5b8501601f81018713612c4757600080fd5b80356001600160401b03811115612c6057612c60612bd1565b604051601f8201601f19908116603f011681016001600160401b0381118282101715612c8e57612c8e612bd1565b604052818152828201602001891015612ca657600080fd5b8160208401602083013760006020838301015280935050505092959194509250565b81518152602080830151610180830191612cec908401826001600160a01b03169052565b506040830151612d0760408401826001600160a01b03169052565b506060830151612d2260608401826001600160401b03169052565b506080830151612d3d60808401826001600160401b03169052565b5060a0830151612d5860a08401826001600160401b03169052565b5060c0830151612d6e60c084018261ffff169052565b5060e0830151612d8260e084018215159052565b50610100830151612d9861010084018215159052565b50610120830151612db56101208401826001600160401b03169052565b5061014083015161014083015261016083015161016083015292915050565b60008060408385031215612de757600080fd5b612df0836128bf565b91506128fe602084016128bf565b600060208284031215612e1057600080fd5b5051919050565b600181811c90821680612e2b57607f821691505b60208210810361119657634e487b7160e01b600052602260045260246000fd5b634e487b7160e01b600052603260045260246000fd5b601f821115610cb457806000526020600020601f840160051c81016020851015612e885750805b601f840160051c820191505b81811015610eaf5760008155600101612e94565b6001600160401b03831115612ebf57612ebf612bd1565b612ed383612ecd8354612e17565b83612e61565b6000601f841160018114612f075760008515612eef5750838201355b600019600387901b1c1916600186901b178355610eaf565b600083815260209020601f19861690835b82811015612f385786850135825560209485019460019092019101612f18565b5086821015612f555760001960f88860031b161c19848701351681555b505060018560011b0183555050505050565b634e487b7160e01b600052601160045260246000fd5b818103818111156106b1576106b1612f67565b6001600160401b0381811683821601908111156106b1576106b1612f67565b6001600160401b0382811682821603908111156106b1576106b1612f67565b600060018201612fe057612fe0612f67565b5060010190565b6001600160a01b0385811682528416602082015260408101839052608060608201819052600090611f1c9083018461293d565b60006020828403121561302c57600080fd5b815161137681612907565b6054811061305557634e487b7160e01b600052602160045260246000fd5b9052565b828152604081016113766020830184613037565b92835260208301919091526001600160f81b031916604082015260600190565b634e487b7160e01b600052603160045260246000fd5b8481526001600160a01b03841660208201526080604082018190526000906130cd9083018561293d565b905061266d606083018461303756fe9e7b61f58c47dc699ac88507c4f5bb9f121c03808c5676a8078fe583e46497019e7b61f58c47dc699ac88507c4f5bb9f121c03808c5676a8078fe583e4649700a2646970667358221220813f33c19c36479a7068f3e2b854e833df0d88a18bccaa6ed398b4d75cf8ffe564736f6c634300081b0033",
  "linkReferences": {},
  "deployedLinkReferences": {}
}